S0120000426F6F745F4C6F616465722E73333798
S11300000010002079040000D9250000D925000043
S1130010D9250000D9250000D9250000D9250000E4
S1130020D9250000D9250000D9250000D9250000D4
S1130030D9250000D9250000D9250000BD210000E4
S1130040D9250000D9250000D9250000D9250000B4
S1130050D9250000D9250000D9250000D9250000A4
S1130060D9250000D9250000D9250000D925000094
S1130070D9250000D9250000D9250000D925000084
S1130080D9250000D9250000D9250000D925000074
S1130090D9250000D9250000D9250000D925000064
S11300A0D92500004D0600002D060000D9250000CA
S11300B0D9250000D9250000D9250000D925000044
S11300C0D9250000D9250000D9250000D925000034
S11300D0D9250000D9250000D9250000D925000024
S11300E0D9250000D9250000D9250000D925000014
S11300F0D9250000D9250000D9250000D925000004
S1130100D9250000D9250000D9250000D9250000F3
S1130110D9250000D9250000D9250000D9250000E3
S1130120D9250000D9250000D9250000D9250000D3
S1130130D9250000D9250000D9250000D9250000C3
S1130140F0B5114A114C124E00F00105E3695F0746
S113015013D40DB9334213D103EA00078F4207D1F8
S11301600B4A1A40002A0CBF00206FF00100F0BDBA
S1130170013AEBD16FF00200F9E74FF0FF30F6E7F8
S11301806FF00100F3E700BF809698000000035071
S11301900200010070B50B4BD96911F480310DD107
S11301A001244FF48072084E084DF46020462C64FC
S11301B01A61FFF7C5FF3464EC6070BD6FF0010095
S11301C0FBE700BF00000350001003500020035061
S11301D070B5C0F30C03054623B140F21A2111484F
S11301E000F0A2F84FF400320F4B104C9A6641F61F
S11301F071330122E669E3630D4B0021DA600223C7
S113020065612120236106F48036FFF799FF10B958
S11302102120FFF795FF0122064BDA600EB100237F
S1130220E36370BDB22C0000009000500000035046
S1130230001003500020035070B5134C6061E36953
S11302405B071ED40E4656F8043B8D18A361AE42DC
S11302500BD10423002121202361FFF771FF58B93A
S1130260BDE870402120FFF76BBF08210846FFF767
S113027067FF10B10423236170BD56F8043BA361EA
S1130280E5E74FF0FF30F7E7000003502DE9F843AE
S1130290154682070F46064604D040F266211E48E2
S11302A000F042F8AB0704D04FF41A711A4800F07A
S11302B03BF84FF40032194BDFF868909A6603F567
S11302C01C33DA6902F4803841F67132DA630122B0
S11302D003F58053DA6065B928460122104BDA60D1
S11302E0B8F1000F03D00022A3F50053DA63BDE890
S11302F0F88306F5005404EA0904A41BAC4228BFA1
S11303002C46394622463046FFF796FF0028E4D1B2
S1130310264427442D1BDEE7B22C00000090005039
S11303200020035000E0FFFF5FF800F0F525000017
S11303300348044B834202D0034B03B11847704770
S11303409C1700209C17002000000000064B074962
S1130350C91A891048BF0131491003D0044B0BB1AD
S113036001481847704700BF9C1700209C170020C5
S11303700000000010B5064C237843B9FFF7D8FFFE
S1130380044B13B10448AFF300800123237010BD64
S113039088150020000000008035000008B5054BDA
S11303A01BB105490548AFF30080BDE80840FFF7DD
S11303B0CDBF00BF00000000001000208035000009
S11303C0A3F5803A704700BF174B002B08BF134BAF
S11303D09D46FFF7F5FF00218B460F461348144A4C
S11303E0121A02F001FB0E4B002B00D098470D4B64
S11303F0002B00D098470020002104000D000D4878
S1130400002802D00C48AFF3008002F099F82000D5
S1130410290002F0BCF802F081F800BF00000800D7
S11304200000000000000000001000200010002068
S113043090150020000000000000000008B50348EB
S113044002F07CFBBDE8084002F0ABB89C2E000033
S1130450014802F073BB00BF9C2E00000348044A0D
S11304600449121A921002F0B8B800BF400100000B
S1130470300300009015002008B5154B83F30A885B
S113048000F030F8FFF7EAFF124B13498B4212D306
S11304900020124B12498B4218D3FFF795FF1868BE
S11304A050F82240586840F822400132986882424D
S11304B0F5D30C33EAE70022F8E71C6844F822007D
S11304C001325C68A242F8D30833E4E70022F8E77B
S11304D000000020883500009435000094350000A9
S11304E09435000070B54FF40041134B134A144D7A
S11304F09A60D3F8882005F5005442F47002C3F8DA
S11305008820104A91664FF0FF3222664FF6DF7260
S113051062660222C3F8D020BFF34F8FBFF36F8F00
S11305204FF44036032001F075FC0320E66001F02F
S11305303FFC2E6170BD00BF00ED00E00000000034
S11305400080004400900050014B1860704700BFC9
S113055084170020054B1860054B1B6F03F007033D
S1130560032B01D102F07CBA704700BF8C17002026
S113057000800050BFF34F8F0549064BCA6802F450
S1130580E0621343CB60BFF34F8F00BFFDE700BFB2
S113059000ED00E00400FA052DE9F0410C250446C5
S11305A04FF00108124E0CB314F001000BD00020E0
S11305B024F0010405FB00625768002FF3D0916812
S11305C0C0B2B847EFE72246013020284FEA520272
S11305D001D0D307F8D508FA00F20F2824EA020460
S11305E0E8D9103805FB0062B432E5E7BDE8F081D4
S11305F01810002008B50C4802F0A0FA192001F0E8
S1130600F1FB28B1192001F005FC192001F0D0FB01
S11306101A2001F0E7FB28B11A2001F0FBFB1A2095
S113062001F0C6FB002008BD9C2E000008B501F0B7
S11306309FFA054B00F0553020F05020C3F82004F9
S1130640BDE80840FFF7A8BF00E0035008B501F07B
S11306508FFA054B00F0AA3020F0A020C3F8200444
S1130660BDE80840FFF798BF00E00350044BD3F8FF
S11306708420D206FBD4D3F88400C0F381107047E1
S11306800040005038B5104B0546D3F800310C46F5
S113069003F00303022B0BD0032B0DD0012B0FD13E
S11306A002F0F8F9032305B1286004B1236038BDD2
S11306B002F0FAF90823F6E702F0F2F90723F2E769
S11306C001230020EFE700BF0080005038B5104B35
S11306D00546D3F820310C4603F00303022B0BD05C
S11306E0032B0DD0012B0FD102F094F9052305B192
S11306F0286004B1236038BD02F0CCF90323F6E787
S113070002F0C4F90223F2E701230020EFE700BF5F
S11307100080005038B5104B0546D3F840310C46E4
S113072003F00303022B0BD0032B0DD0012B0FD1AD
S113073002F0EAF9092305B1286004B1236038BD49
S113074002F0B2F90823F6E702F0E1F90B23F2E72D
S113075001230020EFE700BF0080005038B5104BA4
S11307600546D3F860310C4603F00303022B0BD08B
S1130770032B0DD0012B0FD102F0C6F9092305B1CB
S1130780286004B1236038BD02F08EF90823F6E72F
S113079002F0BDF90B23F2E701230020EFE700BFCD
S11307A00080005038B51A4B0546D3F824010C4696
S11307B000F00700062821D8DFE800F0280410180C
S11307C01C0C140002F026F9052305B1286004B1BD
S11307D0236038BD02F01EF90623F6E702F05AF949
S11307E00323F2E702F056F90423EEE702F04EF990
S11307F00223EAE702F054F90723E6E7054840F646
S1130800DB7101F0F7FE00231846DEE70123DCE785
S113081000800050882B0000F7B50027114B01978A
S1130820D3F88041064604F00304012C0D4608D099
S1130830022C12D041F2E6310B4801F0DBFE3C46BB
S113084004E0394601A8FFF741FF0F240EB1019BD4
S1130850336005B12C6003B0F0BD02F017F90190CC
S1130860F4E700BF00800050882B000038B5164B19
S11308700546D3F800020C4600F00700042819D8F6
S1130880DFE800F020030B0F130002F03DF9092309
S113089005B1286004B1236038BD02F005F90823CE
S11308A0F6E702F034F90B23F2E702F0D9F80E234D
S11308B0800AEDE7054841F2A44101F09BFE0023C4
S11308C01846E5E70123E3E700800050882B000089
S11308D038B5124B0546D3F840320C4603F00303F7
S11308E0022B0BD0032B0DD0012B0FD102F00CF9EE
S11308F0092305B1286004B1236038BD02F0D4F89F
S11309000823F6E702F003F90B23F2E7044841F267
S11309102F4101F06FFE00231846EAE700800050E3
S1130920882B000008B5334B98424FD027D8324B60
S1130930984245D017D8314B98423ED00AD838B1A6
S11309402F4B984239D041F2BB312E4801F052FE70
S1130950002034E02C4B98422FD02C4B9842F2D1FB
S11309602B4B586E2BE02B4B98422CD003F53713AE
S113097003F5D8639842E6D1254B986F1FE0264BC8
S113098098422FD00CD8254B984223D0244B984220
S113099024D0244B9842D6D11D4BD3F884000EE0CA
S11309A0214B984222D003F5740303F51053984267
S11309B0C9D1174BD3F8980001E0154B986D08BDC9
S11309C0134B186FFBE7124B586FF8E7104BD3F833
S11309D08000F4E70E4BD3F88800F0E70C4BD3F813
S11309E08C00ECE70A4BD3F89000E8E7084BD3F807
S11309F09400E4E780BA8C01405DC60080841E0048
S1130A0040420F00882B000000093D00C0CF6A005F
S1130A100080E00F0024F400007E560380D54302DA
S1130A20006CDC020048E8010090D00310B40F4CC5
S1130A300B46D4F8204204F00304012C0ED0022CFF
S1130A4010D008B1002101600BB100221A6041F2FC
S1130A50050107485DF8044B01F0CCBD5DF8044B7B
S1130A60FFF734BE5DF8044BFFF754BE008000501E
S1130A70882B000010B5B0F5207F34D009D8B0F52C
S1130A80007F2AD003D898B1B0F5C07F10D00024DD
S1130A9021E0B0F5607FFAD1154BD3F88030C3F371
S1130AA001149B0617D5032C15D04FF426710FE0C3
S1130AB00F4B1C6F230B13F00E0FC4F303340AD037
S1130AC0072C08D00F2C06D0032C04D04FF422712D
S1130AD0084801F08FFD601C10BD054BD3F8904011
S1130AE0C4F30464F7E7024B1C6FC4F38024F2E7F9
S1130AF000800050882B000010B54FF400320E4BDC
S1130B0004469A660020FFF7B5FF604341F6713250
S1130B100A4C0B4BA04294BF00200120D969DA6330
S1130B209A6822F4401242EA00529A60CA0344BF0F
S1130B300022DA6310BD00BF00900050005A620228
S1130B400000035070B5460904460D460ED140F22C
S1130B5035310D4801F04EFD334604F01F047DB1DC
S1130B6003F580530122A2401A6070BD012E05D006
S1130B70064B074A022E18BF1346EEE7054BECE777
S1130B8003F50053EEE700BF882B00006880005097
S1130B90608200506480005030B585B00021B0F50B
S1130BA0807F0446019100F00F8100F29F8061284C
S1130BB000F294801F2805D8002840F0918001F0AD
S1130BC04FFFDEE0A0F12004412C00F2898001A354
S1130BD053F824F0BF0B00008B0D0000BF0B000086
S1130BE08B0D0000B50D0000B50D0000B50D000023
S1130BF0B50D00008B0D00008B0D0000610D000091
S1130C001B0D0000EB0D0000F50D00001B0D000096
S1130C108B0D00008B0D00008B0D0000E10C00001B
S1130C20E10C0000E10C0000E10C0000E10C00000C
S1130C30E10C0000BF0D00003D0D00008B0D000015
S1130C408B0D00008B0D0000090E0000FF0D00004D
S1130C508B0D0000E10C0000E10C0000E10C000031
S1130C60E10C0000E10C0000E10C0000E10C0000CC
S1130C70E10C0000E10C0000E10C0000E10C0000BC
S1130C80E10C0000E10C0000BF0B0000E10C0000CF
S1130C90BF0B0000BF0B0000BF0B0000B50D000030
S1130CA0E10C0000E10C0000E10C0000E10C00008C
S1130CB0E10C0000E10C0000E10C0000E10C00007C
S1130CC0E10C0000E10C0000E10C0000E10C00006C
S1130CD0E10C0000BF0B0000BF0B000080284ED0C9
S1130CE040F2A4414B4801F085FC4BE0B0F5A06F05
S1130CF065D028D8B0F5607F52D019D8B0F5007F00
S1130D004ED004D8B0F5C07F3FF459AFE8E7B0F552
S1130D10207F3AD0B0F5407FE2D101F0A1FE044635
S1130D204FF42070FFF7A6FEB4FBF0F4640835E03E
S1130D30B0F5806F3ED0B0F5906FD1D1002101A8FD
S1130D40FFF730FD1EE0B0F5E06F58D00DD8B0F5D8
S1130D50C06F4AD0B0F5D06F4CD0B0F5B06FBFD1F2
S1130D60002101A8FFF758FD0CE0B0F5F06F4BD05F
S1130D70B0F5086FB4D101A8FFF784FC02E001F0DC
S1130D804FFE0190019805B030BD01F069FE0446A4
S1130D904FF42070FFF76EFEB4FBF0F40194F1E71A
S1130DA001F03EFE05462046FFF764FEB5FBF0F574
S1130DB00195E7E7002101A8FFF788FCE2E700219D
S1130DC001A8FFF733FEDDE74FF0E02302911B6932
S1130DD05B0705D501F044FE0290029B0193D1E725
S1130DE003A902A8FFF796FCF7E7002101A8FFF783
S1130DF091FCC7E7002101A8FFF738FDC2E70021F5
S1130E0001A8FFF765FDBDE7002101A8FFF7A6FCD7
S1130E10B8E700BF882B000008B58020FFF7BCFEB0
S1130E20034B98429EBF4FF48032024B1A6708BDB1
S1130E30005A620200A000501FB503460020B3F51B
S1130E40807F019077D026D8382B00F08A800BD889
S1130E50243B092B0FD8092B0DD8DFE803F0676773
S1130E6067670C0C5F0C357D522B5FD006D83D2B89
S1130E7039D03E2B7AD040F289514BE0802BFAD105
S1130E803D4B1B6F03F00703013B032B40D8DFE806
S1130E9003F03D36393BB3F5D06F5DD019D8B3F5C7
S1130EA0A06F5ED00AD8B3F5806F3FD0B3F5906FD2
S1130EB0E1D1002001A9FFF775FC33E0B3F5B06F71
S1130EC02CD0B3F5C06FD6D1002001A9FFF722FCC6
S1130ED028E0B3F5006FECD00AD8B3F5E06F45D045
S1130EE0B3F5F06FC7D1002001A9FFF737FC19E073
S1130EF0B3F5086FBFD101A9FFF7C4FB12E00523C6
S1130F0001930FE00323FBE70723F9E70223F7E745
S1130F1040F2D641194801F06DFB03E0002001A91D
S1130F20FFF77AFC019805B05DF804FB002001A9E5
S1130F30FFF7CCFBF6E74FF0E02302901B695B0759
S1130F4005D501F08DFD0C230393039BD8E703A97A
S1130F5002A8FFF7DFFBF8E7002001A9FFF786FCF2
S1130F60E0E7002001A9FFF761FDDBE7002001A90C
S1130F70FFF7AEFCD6E700BF00800050882B0000CE
S1130F804FF48032074B0849586E03F580535A6674
S1130F900B6A23F001030B62C3035CBF034B5A6665
S1130FA0704700BF0080005000C0075000A00050F0
S1130FB0F8B5036804460F2B04D940F68A316C480F
S1130FC001F018FB63680F2B04D940F68D31684893
S1130FD001F010FBA3680F2B04D94FF43961644866
S1130FE001F008FB237B0F2B04D940F693316048B2
S1130FF001F000FB637B0F2B04D940F696315C486B
S113100001F0F8FAA37B3F2B04D940F699315848F4
S113101001F0F0FAE37B3F2B04D940F69C315448AD
S113102001F0E8FA2369032B04D940F69F315048B4
S113103001F0E0FA6369032B04D940F6A2314C486D
S113104001F0D8FAE369012B04D940F6A5314848E8
S113105001F0D0FA8020FFF7EFFE032800F087802C
S11310604FF40022434B02215A6645F60E03424ACE
S1131070C2F88030414B9962012103F58053996293
S1131080936DD903FCD4D4E900131B0543EA01632F
S1131090E17B94F820500B43217BE77E43EA014334
S11310A0617B6D0143EA0133A17B43EA8113136140
S11310B09169D4E904031B0643EA806301F000410B
S11310C00B43A17E94F823000B43217E43EA0143A2
S11310D0617E43EA01239361136AE66923F00D03F9
S11310E094F8221043EA8703002E2DD11362966AE6
S11310F094F8213045EA031326F033052B4343F0DB
S1131100010393621E4D1C4B9A6D35EA0202FBD11A
S113111002221A4DAA621A659A6D5200FCD41A6909
S1131120A56822F4700242EA05521A614FF00042A7
S1131130124B9A6119B9022203F580539A6278B965
S11311400122104B9A620BE0334343F0080313620D
S1131150936A23F0330303432B4343EA410393622B
S113116094F824301BB1044B074AC3F88020F8BD1F
S1131170882B00000090005000C0005000D00050A8
S11311800300014000E00050F1A7FFFF014B93F979
S1131190000070478A15002010B543680446072BE9
S11311A004D940F6E6512A4801F024FAA368032B37
S11311B004D940F6E851264801F01CFA2378032BA1
S11311C004D940F6EA51224801F014FA94F90130A6
S11311D0002B04DA40F6EC511D4801F00BFA4FF4F1
S11311E080011C4A637851664FF4D151022002F504
S11311F0B832516218494F2B48604FF0010028BFA4
S11312004F2301F5805148601169C903FCD421784A
S113121043EA01235361D4E901131B0143EA012387
S1131220617B0B43217B43EA41039360E37BA17B16
S11312301B0143EA4113617C0B43217C43EA4103D4
S11312405360A37C13B16FF4D153536210BD00BF3C
S1131250882B00000090005000100250014B1880B1
S1131260704700BF92170020014B1880704700BFE1
S11312709017002008B54FF40012184B5A66022349
S1131280174A5360936813F48033FBD1012822D1A9
S113129001F000FC134B984215D003F5122303F51B
S11312A0F863984213D0104B00EB8002400AB3FB62
S11312B0F0F3520A0A49CA620B6301234B6200220B
S11312C0074B5A6008BD45F67A13084AF2E745F61B
S11312D01A03074AEEE75362F1E700BF009000509B
S11312E00040025000F0490264666666D8B8050002
S11312F0BBCF050010B5B0F5207F65D00ED8B0F592
S1131300007F4FD003D800B3B0F5C07F1DD04FF499
S11313104671BDE81040344801F06CB9B0F5607F07
S1131320F5D14C1E012C06D9042904D040F2F92130
S11313302D4801F05FF92D4AD2F8803023F03003B4
S113134043EA0413C2F8803010BD4C1E012C0AD9A4
S1131350102903D8264BCB40DB0704D440F2CB2121
S1131360214801F047F901F047F901F053F94FF42E
S11313708031204B1D4A1967136F23F4704343EAED
S11313800433136701F06CFB0446FFF76FF9C0F1F7
S11313900201204601F038F900F046F8BDE810409B
S11313A0FFF73ABD4C1E1F2C04D94FF443710E486D
S11313B001F020F90D4AD2F8903023F0F85343EAB3
S11313C00463C2F89030BFE74C1E012C04D940F2EC
S11313D01231054801F00EF9044A136F23F48063B7
S11313E043EA84231367AFE7882B00000080005092
S11313F0100101000090005008B50121022000F006
S1131400DDF84FF42070FFF735FB054B187001F041
S1131410F3F801F0FFF84FF48032024B1A6708BD6D
S1131420891500200090005008B54FF4C070FFF7F4
S1131430B3FBBDE808400449884294BF012102215E
S11314404FF42070FFF756BF80F0FA0238B5044617
S113145001F006FB0546FFF709F9C0F10201284631
S113146001F0D2F80121002000F0FCF82CB1FFF7C4
S1131470DBFFBDE83840FFF7CFBC034B4FF42070CF
S11314801978FFF737FFF4E7891500202DE9F041BB
S11314900546FFF747FA431E0333044604D940F6D2
S11314A0E2113B4801F0A6F84FF4C022394B5A66CA
S11314B003F598335A68012A04D137494A609A6976
S11314C09207FCD18020FFF7B7FC052807D101F073
S11314D093F801F09FF84FF480322E4B1A672F4B8C
S11314E024F040749D4239D02D4B9D4239D001F0F7
S11314F091FA8542064603D90121284600F0B2F844
S1131500284FFB6813F0060FFBD1D7F80880BC60A6
S1131510BB68634013F4F81F26D12846FFF714F87C
S11315208020FFF789FC052814D101F099FAA8421C
S1131530044604D940F63B21154801F05BF8FFF757
S113154095F8C0F10201204601F05EF8FFF76CFF48
S1131550FFF762FCAE4213D2BDE8F08144F00074A0
S1131560C5E744F08074C2E740F62A21084801F038
S113157041F88020C7F80880FFF75EFC052805D0F5
S1131580BDE8F0410121002000F06CB83546CCE7FD
S1131590882B00000090005000E0015040420F00F2
S11315A080841E0000000150034A0179D36E23F0A9
S11315B030030B43D366704700400050F8B504462F
S11315C0244BD3F88420D006FBD4D3F88430C3F35F
S11315D081139C423CD001F023FA012C05460BD127
S11315E01D4B984204D940F29B711C4801F002F84B
S11315F00121284601F008F801F091FA4FF0007239
S1131600174B07465A66204601F009F84FF48063E9
S1131610104E621E93403367736E9A0103D4D6F85A
S113162084309B060AD5384601F074FA022C0FD197
S11316302846BDE8F840002100F0E6BFD6F8843023
S11316409906E9D540F2B371044800F0D3FFE3E70B
S1131650F8BD00BF00400050005A6202BF2B0000DA
S11316600060005010B50C4608B901F0D9F9074BD9
S113167021461B783BB1064B984204D80120BDE8B3
S11316801040FFF79BBF0220F9E700BF8B15002035
S1131690005A620238B54FF00042264B26495A667A
S11316A001224A604AF6CD3103F50B235D6C1964BF
S11316B0154030BB9968C9070BD4002401221F4B85
S11316C05A6015B11E4B1F4A1A6400F0A9FF204648
S11316D038BD1A498A601C4AD96ACC0705D490429D
S11316E001D10724EAE70130F6E79042E5D1F8E7B3
S11316F00132DC6A14F0080406D08A42F8D10724C7
S1131700DFE700221049F4E78A42F8D020220B4B8D
S11317100B495A620122A3F580539A6023460A4A70
S1131720486A800603D49342E9D00133F8E7934230
S1131730C7D1E4E700900050005009500060095000
S1131740004009503254FFFF40420F0038B54FF0BB
S11317500042174B174C5A66012203F50C235A60BA
S11317604AF6CD33656C2364437893401343124A9D
S1131770D363C3788178A2689B0043EA011322F003
S113178074021343A3600279837943EA0223236139
S11317904279C37943EA022363610078FFF77AFF51
S11317A0EB0744BF054B236400F03AFF012038BD2A
S11317B00090005000400950004000503254FFFF98
S11317C038B5032804460D4605D80B4B33F81030C2
S11317D0CB40DB0704D440F28541084800F00AFFFF
S11317E030220123544341F2100204F1A044AB40DF
S11317F004F57034A35038BDAA2C0000F62B000069
S113180038B5032804460D4605D80B4B33F8103081
S1131810CB40DB0704D440F25641084800F0EAFE0E
S113182030220123544342F2100204F1A044AB409D
S113183004F57034A35038BDAA2C0000F62B000028
S1131840F8B5032804460D4616461F4605D81C4B1A
S113185033F81030CB40DB0704D44FF4B07119488F
S113186000F0C8FE26B129462046CFB1FFF7A8FFF5
S113187004EB4403072D4FF00F014FEA031312D872
S1131880A80006FA00F281400F48184400F0C9FE8F
S1131890AEB92946204677B1BDE8F840FFF790BFBE
S11318A0FFF7AEFFE4E7A5F10800800006FA00F2B6
S11318B081400648E9E7BDE8F840FFF7A1BFF8BD5D
S11318C0AA2C0000712C000004C003500CC003506B
S11318D04FF40032054B9A6641F6713203F51C331E
S11318E0DA63012203F50053DA6070470090005078
S11318F0024B1868C0F30740704700BF0080E00F38
S1131900F8B507460C461E4615464AB940F255112D
S1131910314800F06FFE24B1402E09D1062328E09F
S113192021B94FF42070FFF737F90446402E42D016
S1131930402E09D87EB1202E17D04FF4CE71BDE8C9
S1131940F840254800F056BE602EF6D1B5EB940F52
S11319503CD804230DE0B5EB141F04D940F28711E1
S11319601D4800F047FE102303E0B5EBD40F1CD84C
S113197008235D436B0803EB4413B3FBF5F3174DE6
S1131980203BB5EBC30F4FEAC30404D240F2B311BA
S1131990114800F02FFE602207F500539A602C4096
S11319A007F580539E60FC61F8BD4FF4C6710A4888
S11319B000F020FEDCE70623B4FBF3F3AB42ADD228
S11319C040F29111044800F015FEA7E74FF4CB71E3
S11319D0014800F00FFEBCE7E92C0000F8FF7F008F
S11319E010B5174B0446984208D003F5804398423B
S11319F004D040F25E41134800F0FCFD012204F5DE
S1131A0080535A6040F6AA6341F2050263610023E1
S1131A100D49A360E365E26004F500522361E361CC
S1131A20E36491640649A3658C4203D123650023D2
S1131A30636502E005498C42F8D00123536010BD70
S1131A4000C00550E92C0000FFFF01000000065013
S1131A5070B5434B044698420D4608D003F58043C5
S1131A60984204D040F215313E4800F0C3FD2046B0
S1131A70FFF7B6FF012304F580567360AB7C1BB1FE
S1131A80A36843F08043A360EB7C4BB1344A2B7DC5
S1131A90944243D1A2F51032C2F88C318023F3650D
S1131AA02A8A6B7B20461343EA891343E3602B7B2A
S1131AB0D5E90112FFF724FF6B7D1BB1A36843F442
S1131AC08033A360AB7D1BB1A36843F40043A360E0
S1131AD0EB7D2A7E1B07120502F4E00203F0E043CB
S1131AE01343A365697E1E4A8B1E012B1E4B1FD810
S1131AF094421BD002F5804294420CBF01224FF065
S1131B00FF3203EB4213022041F21C620329985076
S1131B1020D10423F3652B78636170BD134A94428A
S1131B2004BFA2F52032C2F89C31B7E70022E8E7EF
S1131B3094420DD00D4A94420CBF01224FF0FF3263
S1131B4003EB4213022042F21C6201299850DFE7A2
S1131B500022F5E7042204F50053DA65DBE700BF51
S1131B6000C00550E92C000000C0035000000650DE
S1131B70034BD3F82424D3F820041040704700BF4B
S1131B8000C0035030B58BB06C466E4D0FCD0FC402
S1131B902B686D4A2360FF238DF80130D2F84C3155
S1131BA013F4802340F0C280D2F850218DF8013024
S1131BB09DF801306C46FF2B08BF19236846634D1E
S1131BC08DF80130FFF7E8FA3220FFF747FB0FCD1D
S1131BD00FC40FCD0FC495E8030084E803005A4BEB
S1131BE0D3F84C21120340F18D80A3F5FE431C88E9
S1131BF0B4F5807F28BF8C248DF81940FFF7C6FA0E
S1131C00044484F3080452488DF81840FEF7A2FCFB
S1131C106846FFF7CDF93220FFF726FB4D48FFF762
S1131C2035FC4D4800F08AFF20B140F2CB114B48FF
S1131C3000F0E0FC4A4C0020FFF71CFBFFF7DCFB44
S1131C40236F002023F0070343F003032367FFF708
S1131C50FDFB236F434923F474432367424BD3F8BA
S1131C60FC2012F0807251D1C1F880203C4BD3F893
S1131C70202122F0030242F00202C3F82021D3F80B
S1131C80242122F0070242F00202C3F82421D3F8EF
S1131C90802122F0030242F00102C3F88021D3F82C
S1131CA0402122F0030242F00202C3F84021D3F89B
S1131CB0602122F0030242F00202C3F86021D3F84B
S1131CC0402222F0030242F00202C3F84022D3F879
S1131CD0002222F0070242F00202C3F80022D3F8E5
S1131CE0202222F0030242F00102C3F82022FFF76F
S1131CF047F94FF0E0220020136943F00403136115
S1131D000BB030BDD3F85041E4B275E7D3F8FC20F2
S1131D1022F08072C3F8FC200022C1F88020D3F89E
S1131D20FC2042F08072C3F8FC209FE74FF07E63F2
S1131D3093F89C2093F99C30002BFFF639AF8DF873
S1131D40012035E7542E00000080E00F682E0000CB
S1131D5000F0490200B4C404982E0000F42D0000E1
S1131D60008000500090005000ED00E007B56B4685
S1131D70054A1068516803C36846FFF7E7FC002072
S1131D8003B05DF804FB00BF902E000013B50024DF
S1131D90064A6846536F43F00103536700948DF875
S1131DA00440FFF701FC204602B010BD0040005083
S1131DB010B54028044608D801236109074A04F0F5
S1131DC01F04A34042F8213010BD4FF49871044819
S1131DD000F010FC002CF7DBEEE700BF00E100E0B0
S1131DE0A02E000010B53F28044604D940F23B1150
S1131DF0064800F0FFFB064B621153F8220004F082
S1131E001F04E040C04300F0010010BDA02E0000FC
S1131E1000E100E0002808DB01224309034900F047
S1131E201F008240603341F82320704700E100E046
S1131E3038B500F11003502B04460D4604D94FF475
S1131E40EF710E4800F0D6FB0F2D04D940F2DF11DC
S1131E500A4800F0CFFB60B20028ACBF00F160403C
S1131E60074B4FEA0515EDB2ABBF00F5614000F03A
S1131E700F0080F800531D5438BD00BFA02E000091
S1131E8014ED00E010B500F053FE0A4B1A786AB95D
S1131E9001226FF004041A7000F045FE204605216B
S1131EA00134FFF7C5FF402CF8D110BDBDE8104048
S1131EB000F039BE8C15002008B5FFF719FD012884
S1131EC00ED1114B04205A6E4FF480230F49520354
S1131ED058BF0F4A4B6601F51041086258BF53665C
S1131EE000F0C1FBFFF7CEFFFFF740FF00F0B7FBA8
S1131EF0FFF74CFF00F0B8FB00F0C5FB00F05FFB00
S1131F00BDE8084000F0B1BB0080005000900050D4
S1131F1000A0005030B58DB000214FF4803000F0A7
S1131F2065FA002105464FF4003000F05FFA02A97B
S1131F3004464FF4803000F0AFFC4FF4003007A9A2
S1131F4000F0AAFCF5B90CBB069A0B9B9A422BBF76
S1131F50422541254FF400344FF480341F4800F0EB
S1131F602DFC224629461E4800F028FC1D4829461F
S1131F7000F024FC204600F09FFB58B91A4800F0FA
S1131F801DFC26E041254FF48034E7E742254FF459
S1131F900034E3E7154800F011FC00234FF48031CE
S1131FA0204601AA019300F081FC08B11048E6E73D
S1131FB00199104800F002FC0121204600F016FAB5
S1131FC048B90D4800F0FAFBC82000F01FF900F0F2
S1131FD048FB0DB030BD0948D1E700BF012F000018
S1131FE0172F0000492F0000642F0000872F0000E6
S1131FF0BF2F0000E42F000019300000493000001A
S113200070B590B000F056FB00F073FB00F07EFB5F
S113201000F0DCF84FF4E13000F062F9534800F0CE
S1132020CDFB534800F0CAFB524800F0C7FB5248AE
S113203000F0C4FB01214FF4803000F0D7F90121F6
S113204006464FF4003000F0D1F905464B4800F045
S1132050B5FB4FF4803001A900F01EFC4FF40030B2
S113206006A900F019FC00F0EFF80446A0B94448B2
S113207000F0A4FB002E42D1002D3CD10A9A059910
S1132080404800F09BFB059A0A9BA4B99A4214D2DB
S11320904FF40035422113E0012801D13A48E7E723
S11320A03A4800F08BFB022CE4D1032000F03BFB08
S11320B0FFF730FFF9E79A42EAD24FF48035412125
S11320C0334800F07BFB0021284600F08FF948BB21
S11320D0304800F073FB322000F098F8012C14BF54
S11320E00120022000F01FFB28460BA900F0D4FBBE
S11320F00E9800F0C1F8284800F060FBDDE71DB938
S1132100264800F05BFBC3E7254800F057FB41215C
S1132110244800F053FB244800F050FB042000F056
S113212002FBFBE7B5F5803F19D041211D4800F0C3
S113213045FB4FF480340021204600F057F9002875
S1132140E9D10BA9204600F0A7FB184800F036FBA4
S1132150322000F05BF8012000F0E5FAC8E74221E4
S1132160104800F02BFB4FF40034E4E7713000001A
S11321709F30000075300000C5300000EC300000D6
S113218017310000833100003B3100006031000052
S11321909F320000C7320000B5310000F331000067
S11321A0313200005132000020330000E9320000D7
S11321B01022014B1A61704700D00350024A136881
S11321C001331360704700BF8011002010B54FF435
S11321D07A720A4B1B68B3FBF2F3013BB3F1807FC5
S11321E00BD24FF0E0240F2163614FF0FF30FFF773
S11321F01FFE0023A3610723236110BD8017002065
S1132200014B1868704700BF80110020034A116811
S113221013685B1A8342FBD3704700BF8011002010
S1132220034B586F6FEAD01000F00100704700BFF5
S113223000C0035008B1FFF7BBBF1022014B1A6165
S1132240704700BF00E0035070B5FFF7E9FF38B1F5
S113225040F6B736074C2568FFF7E2FF08B90120BE
S113226070BD236802205B1BB342F9D800F05BFA0F
S1132270F2E700BF8011002008B5044672B64FF0A3
S1132280FF32144B0025C3F88020C3F88021C3F823
S11322908420C3F884214FF0E02301211D6129200B
S11322A05D619D61FEF74EFC0B48FFF799FB2946E3
S11322B02920FEF747FCBFF34F8FBFF36F8F074B07
S11322C09C6062B62368626883F3088883F3098894
S11322D09047FEE700E100E00000065000ED00E05A
S11322E070B588B0012106463A20FEF72BFC012187
S11322F02920FEF727FC0123042205210020FFF7F3
S11323009FFA00230F4D01220621184601ACFFF766
S113231097FA0FCD0FC495E8070084E807000A4830
S113232001A90396FFF794FB4FF4A022074BC3F8CF
S113233054264FF4C022C3F84C261422C3F83C267A
S113234008B070BD783300000000065000C0035090
S11323500146014800F07AB90000065070B5044601
S1132360FFF74EFF0546084EFFF74AFF431BA34203
S113237002D34FF0FF3005E0B3691B06F4D50248E1
S113238000F05EF970BD00BF00000650F0B5144EB9
S11323903378B3B9134FDFF850C01C46082504F056
S11323A0010E6408BEF1000F01D084EA0C04013D63
S11323B0F5D10133B3F5807F47F8044BEDD1012308
S11323C03370084C0A448A4200D1F0BD11F8013B35
S11323D04340DBB254F8233083EA1020F3E700BF14
S11323E08D150020841100202083B8EDF0B587B04E
S11323F004460D4601A900F04FFAB4F5803F0CBF26
S1132400412142213A4E55B9019BB34228D1029B46
S1132410A3F50073B3F57E4F25D9022021E02246AF
S1132420344800F0CBF9019FB74210D105993248E6
S113243000F0C4F90199B9420FD10299A1F50073D2
S1132440B3F57E4F0FD92D4800F0B8F9E5E72C48D5
S113245000F0B4F90199B142EEE72A4800F0AEF970
S1132460012007B0F0BD0023082221464FF0FF30C1
S11324700093FFF78BFF04226946FFF787FF029A58
S113248004F10C010C3AFFF781FFC2430399914216
S113249005D015B11C4800F091F90320E1E7049B35
S11324A004F50072934206D01DB11946174800F096
S11324B085F90420D5E7D3E9001301F16042B2F5B0
S11324C0004F03D3002DF4D01148F0E79C4203D809
S11324D004F580349C4204D8002DEAD019460D48F6
S11324E0E5E70DB90020BCE70B4800F067F9F9E710
S11324F0EFBEADDE94330000C13300004A34000067
S1132500E6330000183400007C340000BB340000C3
S1132510EF340000213500005D35000008B5064B9E
S1132520044613B10021AFF30080044B1B6803B1D0
S11325309847204600F05FF8000000008415002052
S113254070B50D4D00260D4C641BA410A64209D194
S11325500B4D00260B4C00F003FB641BA410A64299
S113256005D170BD55F8043B01369847EEE755F8A0
S1132570043B01369847F2E7941700209417002093
S11325809417002098170020FFF73ABD704708B54C
S1132590FFF792FCFFF7F8FF00F081F8FFF7F6FF72
S11325A0FAE77047704770477047704708B5FDF702
S11325B04FFF00F050F8BDE80840FDF73FBF7047FB
S11325C0FEF718B800F006B87047704770477047B8
S11325D0704770470F207047FEE700239A4200D1EE
S11325E0704710B550F8234041F8234001339A4214
S11325F0F8D110BDFEE7FEE708B500F043FABDE8E8
S113260008400021FEF778BA0029CCBF012100213F
S1132610FEF772BA02214FF42070FEF76BBE7047CA
S1132620704770B5054614460E4600F078FA2B68DC
S11326305C4034405C402C60BDE8704000F06ABAF5
S113264083691B06FCD5406AC0B2704783695B0688
S1132650FCD5C163704700F000B800207047FFF755
S113266091BAFDF787BF7047704708B5FFF79EFF23
S1132670FFF7A6FFFFF7A6FFFFF7A6FFBDE8084098
S1132680FFF7A3BF704708B5FFF78CFFFFF78BFF79
S1132690FFF78AFFFFF789FFFFF7F4FF08BD08B5CE
S11326A0FFF794FFFFF793FFFFF792FFBDE80840A1
S11326B0FFF78FBFFFF70CB938B5044600F5803536
S11326C0204600F059FA28B904F50054AC42F7D179
S11326D0012038BD0020FCE708B540EA02039B074F
S11326E005D100F04DFAB0FA80F0400908BD002091
S11326F0FCE710B501213A20FEF724FABDE81040AA
S11327000222012307211046FFF79AB810B50121D0
S11327103A20FEF717FABDE81040002304221846B9
S11327201146FFF78DB808B50138032821D8DFE832
S113273000F01A2532026420FFF73AFDFFF766FD28
S11327400020FFF777FD6420FFF760FDFFF730FD01
S1132750FFF75CFD0020FFF76DFD6420FFF756FDD9
S11327604FF4FA7013E04FF4FA70FFF721FDFFF70E
S11327704DFDBDE808400020FFF75CBDC820FFF711
S113278017FDFFF743FD0020FFF754FDC820BDE807
S11327900840FFF73BBD4FF4FA70FFF709FDFFF760
S11327A035FD0020FFF746FDDAE710B5441E14F8A6
S11327B0010F00B910BDFFF7CBFDF8E70FB430B53A
S11327C085B008AB53F8044B0093207820B905B0CA
S11327D0BDE8304004B0704725285AD16378632B94
S11327E008D1009B1A1D18780092FFF7B1FD01343F
S11327F00134EAE7732B06D1009B1A1D1868009276
S1132800FFF7D3FFF3E76C2B22D1A378752BEED11E
S1132810009B02341A1D00921A6800238DF80F30B1
S11328205AB930238DF80E3009230A2101A832B990
S113283001331844FFF7B9FFDAE70A23F5E7B2FBDF
S1132840F1F501FB15223032C2542A46013BEEE772
S1132850302BCCD1A378382BC9D1E3786C2BC6D1DB
S11328602379582BC3D1009B04341A1D00920722EC
S1132870196801A801F00F03092B94BF30333733D3
S11328801354013A4FEA1111F4D200238DF80C309D
S1132890D0E7FFF75DFDABE70B461422014618466F
S11328A000F0AAB84FF47A70FFF758BD2DE9F04F45
S11328B0A5B014248946924601904320FFF748FDB1
S11328C04FF4FA60FFF74AFD01280BD0182807D00F
S11328D0013CF2D1012025B0BDE8F08F182805D1C4
S11328E00320F8E70646002741F2210B01280DD00A
S11328F01520FFF72DFDFFF7D5FF0428EED10620A4
S1132900FFF726FD0020CAF80070E4E70446FFF74D
S1132910C9FF0546FFF7C6FF55EA000302D4284461
S1132920FF2808D01520FFF713FDFFF7BBFF012890
S113293024D00420CFE70DF1100842460023CDE94E
S11329400223FFF7AFFF00281CDB039B029A01332D
S1132950802B02F8010BF2D100230393FFF7A2FFAF
S11329600290FFF79FFF039B1BB9029A52EA000CE7
S11329700AD51520FFF7ECFCFFF794FF01340B2C6C
S1132980C5D1D6E70123E8E740EA02201A4680B21F
S113299018F801CB83EA0C234FF0080C13F4004F12
S11329A04FEA430318BF8BEA0303BCF1010C9BB24B
S11329B0F4D10132802AEBD19842DAD1EDB2B5429A
S11329C00ED107F180044C450CD8019B04A9D819F9
S11329D0FFF782FE00283FF47DAF27460136F6B2AA
S11329E0062086E7022076E702440346934200D19C
S11329F0704703F8011BF9E70A44431E914200D1D2
S1132A00704710B511F8014B914203F8014FF9D109
S1132A1010BD0000014B1868704700BF84170020E8
S1132A200A4B1B6F03F00703013B032B03D8DFE8BA
S1132A3003F00A030608FEE7054B18687047054BC8
S1132A40FBE7054870470548704700BF0080005009
S1132A50841700208C17002080D54302002D3101FB
S1132A6008B5FFF7DDFF054B1B6FC3F303330133D9
S1132A70B0FBF3F0024B186008BD00BF00800050AB
S1132A80801700200048704700B4C4040048704711
S1132A90002D3101014B1868704700BF8C170020CE
S1132AA00048704780D54302014B1868704700BF47
S1132AB08817002070B50D46E8B1036813F4E07F71
S1132AC003F03F06C3F3821210D0012A13D10B4C3A
S1132AD09B0603D591210A48FFF78CFD45B104F507
S1132AE0805401230020B340236070BD054CEFE700
S1132AF004F50054F5E70E20F7E700BF68800050A6
S1132B00222D0000648000504FF4004070474FF4C1
S1132B107A70704710B962B6BFF36F8F7047EFF3E6
S1132B20108072B6704780F31188BFF36F8F7047BF
S1132B30EFF31180302383F3118870470121FFF7ED
S1132B40B9BF000000000000000000000000000009
S1132B500000000000000000000000000000000071
S1132B60F8B500BFF8BC08BC9E467047F8B500BF76
S1132B70F8BC08BC9E4670475FF800F021160020A0
S1132B805FF800F0DD1600202E2E2F73696D706C37
S1132B9069636974795F73646B5F323032352E36E2
S1132BA02E332F706C6174666F726D2F656D6C6956
S1132BB0622F7372632F656D5F636D752E63002ED4
S1132BC02E2F73696D706C69636974795F73646BBC
S1132BD05F323032352E362E332F706C6174666F4F
S1132BE0726D2F656D6C69622F7372632F656D5FF3
S1132BF0656D752E6300433A5C55736572735C4171
S1132C00646D696E5C53696D706C69636974795342
S1132C10747564696F5C76355F776F726B7370611E
S1132C2063655C4D6F636B5F50726F6A6563745C60
S1132C30426F6F745F4C6F616465725C73696D7031
S1132C406C69636974795F73646B5F323032352EFB
S1132C50362E335C706C6174666F726D5C656D6C7E
S1132C6069625C696E632F656D5F6770696F2E685A
S1132C70002E2E2F73696D706C69636974795F73AC
S1132C80646B5F323032352E362E332F706C6174A4
S1132C90666F726D2F656D6C69622F7372632F6539
S1132CA06D5F6770696F2E630000FF011F00FF00F6
S1132CB00C002E2E2F73696D706C69636974795FD3
S1132CC073646B5F323032352E362E332F706C6165
S1132CD074666F726D2F656D6C69622F7372632FEA
S1132CE0656D5F6D73632E63002E2E2F73696D7097
S1132CF06C69636974795F73646B5F323032352E4B
S1132D00362E332F706C6174666F726D2F656D6C27
S1132D1069622F7372632F656D5F75736172742EB0
S1132D206300433A5C55736572735C41646D696E0C
S1132D305C53696D706C6963697479537475646903
S1132D406F5C76355F776F726B73706163655C4D32
S1132D506F636B5F50726F6A6563745C426F6F740C
S1132D605F4C6F616465725C73696D706C696369F3
S1132D7074795F73646B5F323032352E362E335C78
S1132D80706C6174666F726D5C656D6C69625C69B0
S1132D906E632F656D5F6275732E68002E2E2F7320
S1132DA0696D706C69636974795F73646B5F3230E9
S1132DB032352E362E332F706C6174666F726D2F20
S1132DC0736572766963652F636C6F636B5F6D61A6
S1132DD06E616765722F7372632F736C5F636C6FC0
S1132DE0636B5F6D616E616765725F68616C5F7371
S1132DF0322E63002E2E2F73696D706C69636974B3
S1132E00795F73646B5F323032352E362E332F7018
S1132E106C6174666F726D2F736572766963652F6A
S1132E20636C6F636B5F6D616E616765722F737244
S1132E30632F736C5F636C6F636B5F6D616E61674F
S1132E4065725F696E69745F68616C5F73322E636B
S1132E500000000001260000040000000000000043
S1132E6000010000000000000B0000000B00000047
S1132E700200000000002020000000000300000009
S1132E808C8C3C00000000000000000000000000EA
S1132E900103040101010903150000001A000000E8
S1132EA02E2E2F73696D706C69636974795F736416
S1132EB06B5F323032352E362E332F706C61746670
S1132EC06F726D2F736572766963652F696E7465B1
S1132ED072727570745F6D616E616765722F737263
S1132EE0632F736C5F696E746572727570745F6D55
S1132EF0616E616765725F636F727465786D2E636E
S1132F00000D0A5B42544C5D205550444154452009
S1132F104D4F44450D0A005B42544C5D2054617290
S1132F20676574205570646174653A20534C4F543E
S1132F302025632028416464726573733A203078D5
S1132F402530386C58290D0A005B42544C5D2045ED
S1132F50726173696E6720536C6F742025632E2E23
S1132F602E0D0A005B42544C5D204552524F523A9A
S1132F7020466C61736820457261736520466169FF
S1132F806C6564210D0A005B42544C5D20457261FE
S1132F907365642120526561647920746F207265C1
S1132FA063656976652066696C6520766961205879
S1132FB04D4F44454D2D4352432E2E2E0D0A005B9A
S1132FC042544C5D204552524F523A2046696C653A
S1132FD0207472616E73666572206661696C6564E3
S1132FE02E0D0A005B42544C5D205472616E736670
S1132FF0657220636F6D706C6574652028256C752F
S1133000206279746573292E2056616C6964617439
S1133010696E672E2E2E0D0A005B42544C5D204EC5
S11330206577206669726D776172652056414C49F7
S1133030442120526573657474696E6720737973D3
S113304074656D2E2E2E0D0A005B42544C5D204596
S113305052524F523A204E6577206669726D7761FD
S1133060726520697320494E56414C49442E0D0A1D
S1133070000D0A0D0A2D2D2D2D2D2D2D2D2D2D2D2F
S11330802D2D2D2D2D2D2D2D2D2D2D2D2D2D2D2D6C
S11330902D2D2D2D2D2D2D2D2D2D2D2D0D0A002DCC
S11330A02D2D2042474D323230204455414C2D5372
S11330B04C4F5420424F4F544C4F41444552202DC5
S11330C02D2D0D0A000D0A5B42544C5D203D3D3D03
S11330D02053595354454D20535441545553205271
S11330E045504F5254203D3D3D0D0A005B42544C27
S11330F05D203D3D3D3D3D3D3D3D3D3D3D3D3D3DF9
S11331003D3D3D3D3D3D3D3D3D3D3D3D3D3D3D3DEB
S11331103D3D0D0A0D0A005B42544C5D20426F6F29
S113312074204D6F64652044657465637465643A06
S11331302044454641554C540D0A005B42544C5DB5
S113314020426F6F74204D6F64652044657465631D
S11331507465643A20524F4C4C4241434B0D0A0073
S11331605B42544C5D20426F6F74204D6F64652048
S113317044657465637465643A205550444154450C
S11331800D0A005B42544C5D20436F6D706172699F
S11331906E673A20536C6F742041202876256C7535
S11331A02920767320536C6F742042202876256C76
S11331B075290D0A005B42544C5D20536C6F7420DA
S11331C0412069732076616C69642C20536C6F74A0
S11331D0204220697320696E76616C69642E2053E5
S11331E0656C656374696E6720536C6F7420412E3F
S11331F00D0A005B42544C5D20536C6F74204220D6
S113320069732076616C69642C20536C6F7420415F
S113321020697320696E76616C69642E2053656C35
S1133220656374696E6720536C6F7420422E0D0AB7
S1133230005B42544C5D20426F746820736C6F7461
S1133240732061726520696E76616C69642E0D0A63
S1133250005B42544C5D205741524E494E473A2040
S113326043686F73656E20736C6F74206661696C5C
S113327065642076616C69646174696F6E212054A1
S11332807279696E672046616C6C6261636B20744D
S11332906F20536C6F742025632E2E2E0D0A005B55
S11332A042544C5D204465636973696F6E3A2042F1
S11332B06F6F74696E672066726F6D20536C6F74E4
S11332C0202563210D0A005B42544C5D204A756D34
S11332D070696E6720746F204170706C69636174EB
S11332E0696F6E2E2E2E0D0A005B42544C5D2046F3
S11332F0616C6C6261636B20737563636573736681
S1133300756C2E204A756D70696E6720746F20414C
S113331070706C69636174696F6E2E2E2E0D0A00D5
S11333200D0A5B42544C5D2053414645204D4F44A9
S1133330453A20626F746820736C6F747320696EF1
S113334076616C69642E20526573657420616E64C5
S113335020686F6C642042544E30203E203373202A
S1133360746F20656E746572205570646174652095
S11333704D6F64652E0D0A0005000000000000007A
S113338000C2010000050000001000000000000061
S1133390000000000D0A5B42544C5D202D2D2D20B1
S11333A0436865636B696E6720534C4F54202563F3
S11333B0202830782530386C5829202D2D2D0D0AE1
S11333C0005B42544C5D20486561646572207265FF
S11333D0706F7274732056657273696F6E3A2076DB
S11333E0256C750D0A005B42544C5D20456D70746C
S11333F079206F7220636F727275707420284E6F1B
S11334002076616C69642068656164657220666F0A
S1133410756E64292E0D0A005B42544C5D202D3ECE
S1133420204552524F523A20426164204D616769EF
S113343063204E756D6265722028476F743A2030A0
S1133440782530386C58290D0A005B42544C5D20B5
S11334502D3E204552524F523A2042616420496D1C
S11334606167652053697A652028476F743A20257F
S11334706C75206279746573290D0A005B42544CA3
S11334805D202D3E204552524F523A204261642025
S11334904352433332202845787065637465643A37
S11334A02030782530386C582C2043616C633A20E6
S11334B030782530386C58290D0A005B42544C5D35
S11334C0202D3E204552524F523A204261642056EC
S11334D06563746F72204164647265737320284756
S11334E06F743A2030782530386C58290D0A005B07
S11334F042544C5D202D3E204552524F523A204DAD
S11335005350206F757473696465205352414D2084
S113351028476F743A2030782530386C58290D0AC2
S1133520005B42544C5D202D3E204552524F523A8E
S11335302052657365742048616E646C6572206FF7
S113354075747369646520536C6F742028476F74B5
S11335503A2030782530386C58290D0A005B4254E3
S11335604C5D202D3E2056414C494421205265613A
S1133570647920666F72207573652E0D0A00000051
S10B358040CEFF7F01000000B2
S10F3588943500008017002007000000AC
S1133594C0EA2101C0EA21010080000000F04902D0
S10F35A4FFFFFFFF9D0300007503000003
S90304797F
