:020000022000DC
:100200000010002089040200011F0200011F0200EB
:10021000011F0200011F0200011F0200011F020056
:10022000011F0200011F0200011F0200011F020046
:10023000011F0200011F0200011F0200011F020036
:10024000011F0200011F0200011F0200011F020026
:10025000011F0200011F0200011F0200711C0200A9
:10026000011F0200011F0200011F0200011F020006
:10027000011F0200011F0200011F0200011F0200F6
:10028000011F0200011F0200011F0200011F0200E6
:10029000011F0200011F0200011F0200011F0200D6
:1002A000011F02003906020019060200011F0200A8
:1002B000011F0200011F0200011F0200011F0200B6
:1002C000011F0200011F0200011F0200011F0200A6
:1002D000011F0200011F0200011F0200011F020096
:1002E000011F0200011F0200011F0200011F020086
:1002F000011F0200011F0200011F0200011F020076
:10030000011F0200011F0200011F0200011F020065
:10031000011F0200011F0200011F0200011F020055
:10032000011F0200011F0200011F0200011F020045
:10033000011F0200011F0200011F0200011F020035
:100340000348044B834202D0034B03B11847704764
:10035000B4110020B411002000000000064B074932
:10036000C91A891048BF0131491003D0044B0BB1A1
:1003700001481847704700BFB4110020B411002095
:100380000000000010B5064C237843B9FFF7D8FFF2
:10039000044B13B10448AFF300800123237010BD58
:1003A00090110020000000006824020008B5054BF1
:1003B0001BB105490548AFF30080BDE80840FFF7D1
:1003C000CDBF00BF00000000001000206824020024
:1003D000A3F5803A704700BF174B002B08BF134BA3
:1003E0009D46FFF7F5FF00218B460F461348144A40
:1003F000121A01F0EDFD0E4B002B00D098470D4B6B
:10040000002B00D098470020002104000D000D486B
:10041000002802D00C48AFF3008001F025FD200039
:10042000290001F048FD01F00DFD00BF00000800AB
:10043000000000000000000000100020001000205C
:1004400098110020000000000000000008B50348DB
:1004500001F05AFEBDE8084001F037BDDC23020080
:10046000014801F051BE00BFDC2302000348044AEA
:100470000449121A921001F044BD00BF400302006B
:10048000400302009811002008B5154B83F30A8839
:1004900000F030F8FFF7EAFF124B13498B4212D3FA
:1004A0000020124B12498B4218D3FFF795FF1868B2
:1004B00050F82240586840F8224001329868824241
:1004C000F5D30C33EAE70022F8E71C6844F8220071
:1004D00001325C68A242F8D30833E4E70022F8E76F
:1004E00000000020702402007C2402007C24020012
:1004F0007C24020070B54FF40041134B134A144D95
:100500009A60D3F8882005F5005442F47002C3F8CD
:100510008820104A91664FF0FF3222664FF6DF7254
:1005200062660222C3F8D020BFF34F8FBFF36F8FF4
:100530004FF44036032001F01BFB0320E66001F07E
:10054000E5FA2E6170BD00BF00ED00E00002020080
:100550000080004400900050014B1860704700BFBD
:100560009C110020054B1860054B1B6F03F007031F
:10057000032B01D101F05ABD704700BFA411002028
:10058000008000502DE9F0410C2504464FF0010891
:10059000124E0CB314F001000BD0002024F0010423
:1005A00005FB00625768002FF3D09168C0B2B847CE
:1005B000EFE72246013020284FEA520201D0D3074C
:1005C000F8D508FA00F20F2824EA0204E8D9103816
:1005D00005FB0062B432E5E7BDE8F08118100020A9
:1005E00008B50C4801F090FD192001F0A9FA28B1D6
:1005F000192001F0BDFA192001F088FA1A2001F043
:100600009FFA28B11A2001F0B3FA1A2001F07EFAFD
:10061000002008BDDC23020008B501F057F9054BA6
:1006200000F0553020F05020C3F82004BDE8084009
:10063000FFF7A8BF00E0035008B501F047F9054BEC
:1006400000F0AA3020F0A020C3F82004BDE8084044
:10065000FFF798BF00E00350044BD3F88420D20684
:10066000FBD4D3F88400C0F38110704700400050E1
:1006700038B5104B0546D3F800310C4603F00303A0
:10068000022B0BD0032B0DD0012B0FD101F0E8FC76
:10069000032305B1286004B1236038BD01F0EAFCF2
:1006A0000823F6E701F0E2FC0723F2E7012300202C
:1006B000EFE700BF0080005038B5104B0546D3F877
:1006C00020310C4603F00303022B0BD0032B0DD07B
:1006D000012B0FD101F084FC052305B1286004B182
:1006E000236038BD01F0BCFC0323F6E701F0B4FC45
:1006F0000223F2E701230020EFE700BF0080005053
:1007000038B5104B0546D3F840310C4603F00303CF
:10071000022B0BD0032B0DD0012B0FD101F0DAFCF3
:10072000092305B1286004B1236038BD01F0A2FCA3
:100730000823F6E701F0D1FC0B23F2E701230020A8
:10074000EFE700BF0080005038B5104B0546D3F8E6
:1007500060310C4603F00303022B0BD0032B0DD0AA
:10076000012B0FD101F0B6FC092305B1286004B1BB
:10077000236038BD01F07EFC0823F6E701F0ADFCF4
:100780000B23F2E701230020EFE700BF00800050B9
:1007900038B51A4B0546D3F824010C4600F0070083
:1007A000062821D8DFE800F0280410181C0C1400DB
:1007B00001F016FC052305B1286004B1236038BDA3
:1007C00001F00EFC0623F6E701F04AFC0323F2E7F2
:1007D00001F046FC0423EEE701F03EFC0223EAE7C9
:1007E00001F044FC0723E6E7054840F6DB7101F021
:1007F00095FB00231846DEE70123DCE7008000506C
:1008000038210200F7B50027114B0197D3F880413A
:10081000064604F00304012C0D4608D0022C12D029
:1008200041F2E6310B4801F079FB3C4604E03946E1
:1008300001A8FFF741FF0F240EB1019B336005B102
:100840002C6003B0F0BD01F007FC0190F4E700BF9D
:10085000008000503821020038B5164B0546D3F809
:1008600000020C4600F00700042819D8DFE800F069
:1008700020030B0F130001F02DFC092305B12860A4
:1008800004B1236038BD01F0F5FB0823F6E701F061
:1008900024FC0B23F2E701F0C9FB0E23800AEDE7ED
:1008A000054841F2A44101F039FB00231846E5E771
:1008B0000123E3E7008000503821020038B5124BD5
:1008C0000546D3F840320C4603F00303022B0BD04D
:1008D000032B0DD0012B0FD101F0FCFB092305B137
:1008E000286004B1236038BD01F0C4FB0823F6E79B
:1008F00001F0F3FB0B23F2E7044841F22F4101F032
:100900000DFB00231846EAE7008000503821020062
:1009100008B5334B98424FD027D8324B984245D038
:1009200017D8314B98423ED00AD838B12F4B984255
:1009300039D041F2BB312E4801F0F0FA002034E00A
:100940002C4B98422FD02C4B9842F2D12B4B586E07
:100950002BE02B4B98422CD003F5371303F5D863CB
:100960009842E6D1254B986F1FE0264B98422FD036
:100970000CD8254B984223D0244B984224D0244BAA
:100980009842D6D11D4BD3F884000EE0214B9842FB
:1009900022D003F5740303F510539842C9D1174BC5
:1009A000D3F8980001E0154B986D08BD134B186FF4
:1009B000FBE7124B586FF8E7104BD3F88000F4E7D1
:1009C0000E4BD3F88800F0E70C4BD3F88C00ECE723
:1009D0000A4BD3F89000E8E7084BD3F89400E4E71B
:1009E00080BA8C01405DC60080841E0040420F002A
:1009F0003821020000093D00C0CF6A000080E00FEE
:100A00000024F400007E560380D54302006CDC0213
:100A10000048E8010090D00310B40F4C0B46D4F806
:100A2000204204F00304012C0ED0022C10D008B197
:100A3000002101600BB100221A6041F20501074854
:100A40005DF8044B01F06ABA5DF8044BFFF734BE61
:100A50005DF8044BFFF754BE0080005038210200BF
:100A600010B5B0F5207F34D009D8B0F5007F2AD07A
:100A700003D898B1B0F5C07F10D0002421E0B0F5C4
:100A8000607FFAD1154BD3F88030C3F301149B0675
:100A900017D5032C15D04FF426710FE00F4B1C6FA8
:100AA000230B13F00E0FC4F303340AD0072C08D025
:100AB0000F2C06D0032C04D04FF42271084801F00B
:100AC0002DFA601C10BD054BD3F89040C4F30464AC
:100AD000F7E7024B1C6FC4F38024F2E7008000505C
:100AE0003821020010B54FF400320E4B04469A66CE
:100AF0000020FFF7B5FF604341F671320A4C0B4B03
:100B0000A04294BF00200120D969DA639A6822F4D8
:100B1000401242EA00529A60CA0344BF0022DA63DC
:100B200010BD00BF00900050005A62020000035048
:100B300070B5460904460D460ED140F235310D48D8
:100B400001F0ECF9334604F01F047DB103F5805346
:100B50000122A2401A6070BD012E05D0064B074A43
:100B6000022E18BF1346EEE7054BECE703F50053E2
:100B7000EEE700BF3821020068800050608200501C
:100B80006480005030B585B00021B0F5807F044608
:100B9000019100F00F8100F29F80612800F29480A3
:100BA0001F2805D8002840F0918001F03FFADEE0D0
:100BB000A0F12004412C00F2898001A353F824F015
:100BC000AB0B0200770D0200AB0B0200770D0200A9
:100BD000A10D0200A10D0200A10D0200A10D020055
:100BE000770D0200770D02004D0D0200070D020087
:100BF000D70D0200E10D0200070D0200770D020083
:100C0000770D0200770D0200CD0C0200CD0C020022
:100C1000CD0C0200CD0C0200CD0C0200CD0C020068
:100C2000AB0D0200290D0200770D0200770D0200C6
:100C3000770D0200F50D0200EB0D0200770D0200AA
:100C4000CD0C0200CD0C0200CD0C0200CD0C020038
:100C5000CD0C0200CD0C0200CD0C0200CD0C020028
:100C6000CD0C0200CD0C0200CD0C0200CD0C020018
:100C7000CD0C0200AB0B0200CD0C0200AB0B02004E
:100C8000AB0B0200AB0B0200A10D0200CD0C020069
:100C9000CD0C0200CD0C0200CD0C0200CD0C0200E8
:100CA000CD0C0200CD0C0200CD0C0200CD0C0200D8
:100CB000CD0C0200CD0C0200CD0C0200CD0C0200C8
:100CC000AB0B0200AB0B020080284ED040F2A441D7
:100CD0004B4801F023F94BE0B0F5A06F65D028D860
:100CE000B0F5607F52D019D8B0F5007F4ED004D84F
:100CF000B0F5C07F3FF459AFE8E7B0F5207F3AD0B8
:100D0000B0F5407FE2D101F091F904464FF4207034
:100D1000FFF7A6FEB4FBF0F4640835E0B0F5806F91
:100D20003ED0B0F5906FD1D1002101A8FFF730FD82
:100D30001EE0B0F5E06F58D00DD8B0F5C06F4AD0C6
:100D4000B0F5D06F4CD0B0F5B06FBFD1002101A885
:100D5000FFF758FD0CE0B0F5F06F4BD0B0F5086F21
:100D6000B4D101A8FFF784FC02E001F03FF9019043
:100D7000019805B030BD01F059F904464FF42070D8
:100D8000FFF76EFEB4FBF0F40194F1E701F02EF9E9
:100D900005462046FFF764FEB5FBF0F50195E7E751
:100DA000002101A8FFF788FCE2E7002101A8FFF776
:100DB00033FEDDE74FF0E02302911B695B0705D5A9
:100DC00001F034F90290029B0193D1E703A902A834
:100DD000FFF796FCF7E7002101A8FFF791FCC7E7B2
:100DE000002101A8FFF738FDC2E7002101A8FFF7A5
:100DF00065FDBDE7002101A8FFF7A6FCB8E700BF2D
:100E00003821020008B58020FFF7BCFE034B984252
:100E10009EBF4FF48032024B1A6708BD005A62022F
:100E200000A000501FB503460020B3F5807F01905D
:100E300077D026D8382B00F08A800BD8243B092B9A
:100E40000FD8092B0DD8DFE803F0676767670C0C34
:100E50005F0C357D522B5FD006D83D2B39D03E2B11
:100E60007AD040F289514BE0802BFAD13D4B1B6F79
:100E700003F00703013B032B40D8DFE803F03D36C6
:100E8000393BB3F5D06F5DD019D8B3F5A06F5ED004
:100E90000AD8B3F5806F3FD0B3F5906FE1D1002051
:100EA00001A9FFF775FC33E0B3F5B06F2CD0B3F5B3
:100EB000C06FD6D1002001A9FFF722FC28E0B3F5CE
:100EC000006FECD00AD8B3F5E06F45D0B3F5F06F02
:100ED000C7D1002001A9FFF737FC19E0B3F5086F6F
:100EE000BFD101A9FFF7C4FB12E0052301930FE076
:100EF0000323FBE70723F9E70223F7E740F2D64194
:100F0000194801F00BF803E0002001A9FFF77AFC73
:100F1000019805B05DF804FB002001A9FFF7CCFBA8
:100F2000F6E74FF0E02302901B695B0705D501F05F
:100F30007DF80C230393039BD8E703A902A8FFF7CE
:100F4000DFFBF8E7002001A9FFF786FCE0E70020BF
:100F500001A9FFF761FDDBE7002001A9FFF7AEFC67
:100F6000D6E700BF00800050382102004FF48032E5
:100F7000074B0849586E03F580535A660B6A23F0F5
:100F800001030B62C3035CBF034B5A66704700BF8B
:100F90000080005000C0075000A00050F8B5036862
:100FA00004460F2B04D940F68A316C4800F0B6FF96
:100FB00063680F2B04D940F68D31684800F0AEFF0E
:100FC000A3680F2B04D94FF43961644800F0A6FFE1
:100FD000237B0F2B04D940F69331604800F09EFF2D
:100FE000637B0F2B04D940F696315C4800F096FFE6
:100FF000A37B3F2B04D940F69931584800F08EFF6F
:10100000E37B3F2B04D940F69C31544800F086FF27
:101010002369032B04D940F69F31504800F07EFF2E
:101020006369032B04D940F6A2314C4800F076FFE7
:10103000E369012B04D940F6A531484800F06EFF62
:101040008020FFF7EFFE032800F087804FF4002296
:10105000434B02215A6645F60E03424AC2F88030DD
:10106000414B9962012103F580539962936DD90335
:10107000FCD4D4E900131B0543EA0163E17B94F837
:1010800020500B43217BE77E43EA0143617B6D01E6
:1010900043EA0133A17B43EA811313619169D4E9E7
:1010A00004031B0643EA806301F000410B43A17E69
:1010B00094F823000B43217E43EA0143617E43EA17
:1010C00001239361136AE66923F00D0394F822105B
:1010D00043EA8703002E2DD11362966A94F82130DB
:1010E00045EA031326F033052B4343F001039362D3
:1010F0001E4D1C4B9A6D35EA0202FBD102221A4D9D
:10110000AA621A659A6D5200FCD41A69A56822F485
:10111000700242EA05521A614FF00042124B9A6186
:1011200019B9022203F580539A6278B90122104B53
:101130009A620BE0334343F008031362936A23F08F
:10114000330303432B4343EA4103936294F824306F
:101150001BB1044B074AC3F88020F8BD38210200B8
:101160000090005000C0005000D00050030001402B
:1011700000E00050F1A7FFFF014B93F9000070471A
:101180009211002010B543680446072B04D940F69D
:10119000E6512A4800F0C2FEA368032B04D940F6AA
:1011A000E851264800F0BAFE2378032B04D940F614
:1011B000EA51224800F0B2FE94F90130002B04DA23
:1011C00040F6EC511D4800F0A9FE4FF480011C4A86
:1011D000637851664FF4D151022002F5B832516262
:1011E00018494F2B48604FF0010028BF4F2301F5ED
:1011F000805148601169C903FCD4217843EA012376
:101200005361D4E901131B0143EA0123617B0B43C2
:10121000217B43EA41039360E37BA17B1B0143EA0B
:101220004113617C0B43217C43EA41035360A37C5F
:1012300013B16FF4D153536210BD00BF38210200C7
:101240000090005000100250014B1880704700BF02
:10125000AA110020014B1880704700BFA811002080
:1012600008B54FF40012184B5A660223174A536010
:10127000936813F48033FBD1012822D100F0F0FEF3
:10128000134B984215D003F5122303F5F8639842E7
:1012900013D0104B00EB8002400AB3FBF0F3520A6C
:1012A0000A49CA620B6301234B620022074B5A6052
:1012B00008BD45F67A13084AF2E745F61A03074ACD
:1012C000EEE75362F1E700BF00900050004002508B
:1012D00000F0490264666666D8B80500BBCF050019
:1012E00010B5B0F5207F65D00ED8B0F5007F4FD097
:1012F00003D800B3B0F5C07F1DD04FF44671BDE8F0
:101300001040344800F00ABEB0F5607FF5D14C1EA5
:10131000012C06D9042904D040F2F9212D4800F00F
:10132000FDFD2D4AD2F8803023F0300343EA041348
:10133000C2F8803010BD4C1E012C0AD9102903D8E8
:10134000264BCB40DB0704D440F2CB21214800F0F0
:10135000E5FD00F0E5FD00F0F1FD4FF48031204B9C
:101360001D4A1967136F23F4704343EA043313676C
:1013700000F05CFE0446FFF76FF9C0F10201204661
:1013800000F0D6FD00F046F8BDE81040FFF73ABD8A
:101390004C1E1F2C04D94FF443710E4800F0BEFDC3
:1013A0000D4AD2F8903023F0F85343EA0463C2F8B0
:1013B0009030BFE74C1E012C04D940F21231054891
:1013C00000F0ACFD044A136F23F4806343EA8423E6
:1013D0001367AFE7382102000080005010010100C0
:1013E0000090005008B50121022000F0DDF84FF414
:1013F0002070FFF735FB054B187000F091FD00F0F1
:101400009DFD4FF48032024B1A6708BD91110020F8
:101410000090005008B54FF4C070FFF7B3FBBDE873
:1014200008400449884294BF012102214FF42070F2
:10143000FFF756BF80F0FA0238B5044600F0F6FD1B
:101440000546FFF709F9C0F10201284600F070FDDA
:101450000121002000F0FCF82CB1FFF7DBFFBDE814
:101460003840FFF7CFBC034B4FF420701978FFF7DB
:1014700037FFF4E7911100202DE9F0410546FFF711
:1014800047FA431E0333044604D940F6E2113B48B1
:1014900000F044FD4FF4C022394B5A6603F59833EF
:1014A0005A68012A04D137494A609A699207FCD1E7
:1014B0008020FFF7B7FC052807D100F031FD00F0D0
:1014C0003DFD4FF480322E4B1A672F4B24F04074B1
:1014D0009D4239D02D4B9D4239D000F081FD85428F
:1014E000064603D90121284600F0B2F8284FFB68D0
:1014F00013F0060FFBD1D7F80880BC60BB686340CF
:1015000013F4F81F26D12846FFF726F88020FFF7AE
:1015100089FC052814D100F089FDA842044604D9AD
:1015200040F63B21154800F0F9FCFFF795F8C0F1B3
:101530000201204600F0FCFCFFF76CFFFFF762FCA5
:10154000AE4213D2BDE8F08144F00074C5E744F028
:101550008074C2E740F62A21084800F0DFFC8020B2
:10156000C7F80880FFF75EFC052805D0BDE8F0410C
:101570000121002000F06CB83546CCE7382102008C
:101580000090005000E0015040420F0080841E0097
:1015900000000150034A0179D36E23F030030B435E
:1015A000D366704700400050F8B50446244BD3F88A
:1015B0008420D006FBD4D3F88430C3F381139C423B
:1015C0003CD000F013FD012C05460BD11D4B984279
:1015D00004D940F29B711C4800F0A0FC0121284670
:1015E00000F0A6FC00F081FD4FF00072174B07469B
:1015F0005A66204600F0A7FC4FF48063104E621E2E
:1016000093403367736E9A0103D4D6F884309B06F7
:101610000AD5384600F064FD022C0FD12846BDE8FB
:10162000F840002100F084BCD6F884309906E9D552
:1016300040F2B371044800F071FCE3E7F8BD00BF6D
:1016400000400050005A62026F210200006000500A
:1016500010B50C4608B900F0C9FC074B21461B78B1
:101660003BB1064B984204D80120BDE81040FFF77B
:101670009BBF0220F9E700BF93110020005A6202CD
:1016800038B54FF00042264B26495A6601224A607F
:101690004AF6CD3103F50B235D6C1964154030BB60
:1016A0009968C9070BD4002401221F4B5A6015B159
:1016B0001E4B1F4A1A6400F047FC204638BD1A49E9
:1016C0008A601C4AD96ACC0705D4904201D107240C
:1016D000EAE70130F6E79042E5D1F8E70132DC6A4B
:1016E00014F0080406D08A42F8D10724DFE700226C
:1016F0001049F4E78A42F8D020220B4B0B495A627A
:101700000122A3F580539A6023460A4A486A80065C
:1017100003D49342E9D00133F8E79342C7D1E4E719
:1017200000900050005009500060095000400950DE
:101730003254FFFF40420F0038B54FF00042174BC4
:10174000174C5A66012203F50C235A604AF6CD3332
:10175000656C2364437893401343124AD363C37880
:101760008178A2689B0043EA011322F074021343BC
:10177000A3600279837943EA022323614279C37922
:1017800043EA022363610078FFF77AFFEB0744BF67
:10179000054B236400F0D8FB012038BD00900050B9
:1017A00000400950004000503254FFFF38B5032874
:1017B00004460D4605D80B4B33F81030CB40DB0701
:1017C00004D440F28541084800F0A8FB30220123F0
:1017D000544341F2100204F1A044AB4004F57034CC
:1017E000A35038BD5A220200A621020038B50328B2
:1017F00004460D4605D80B4B33F81030CB40DB07C1
:1018000004D440F25641084800F088FB30220123FE
:10181000544342F2100204F1A044AB4004F570348A
:10182000A35038BD5A220200A6210200F8B50328B1
:1018300004460D4616461F4605D81C4B33F810309B
:10184000CB40DB0704D44FF4B071194800F066FBBD
:1018500026B129462046CFB1FFF7A8FF04EB440389
:10186000072D4FF00F014FEA031312D8A80006FA14
:1018700000F281400F48184400F067FBAEB92946DA
:10188000204677B1BDE8F840FFF790BFFFF7AEFF05
:10189000E4E7A5F10800800006FA00F2814006485E
:1018A000E9E7BDE8F840FFF7A1BFF8BD5A22020002
:1018B0002122020004C003500CC00350024B1868E0
:1018C000C0F30740704700BF0080E00F034BD3F820
:1018D0002424D3F820041040704700BF00C00350F8
:1018E00030B58BB06C466E4D0FCD0FC42B686D4A72
:1018F0002360FF238DF80130D2F84C3113F480239C
:1019000040F0C280D2F850218DF801309DF80130AE
:101910006C46FF2B08BF19236846634D8DF80130D4
:10192000FFF730FC3220FFF78FFC0FCD0FC40FCD37
:101930000FC495E8030084E803005A4BD3F84C2108
:10194000120340F18D80A3F5FE431C88B4F5807F1F
:1019500028BF8C248DF81940FFF70EFC044484F353
:10196000080452488DF81840FEF7FCFD6846FFF762
:1019700015FB3220FFF76EFC4D48FFF77DFD4D480B
:1019800000F0C2FB20B140F2CB114B4800F0C6FA88
:101990004A4C0020FFF764FCFFF724FD236F002072
:1019A00023F0070343F003032367FFF745FD236F8D
:1019B000434923F474432367424BD3F8FC2012F0CD
:1019C000807251D1C1F880203C4BD3F8202122F005
:1019D000030242F00202C3F82021D3F8242122F0AE
:1019E000070242F00202C3F82421D3F8802122F03A
:1019F000030242F00102C3F88021D3F8402122F013
:101A0000030242F00202C3F84021D3F8602122F021
:101A1000030242F00202C3F86021D3F8402222F010
:101A2000030242F00202C3F84022D3F8002222F05F
:101A3000070242F00202C3F80022D3F8202222F06B
:101A4000030242F00102C3F82022FFF78FFA4FF0A1
:101A5000E0220020136943F0040313610BB030BD92
:101A6000D3F85041E4B275E7D3F8FC2022F080723D
:101A7000C3F8FC200022C1F88020D3F8FC2042F0FB
:101A80008072C3F8FC209FE74FF07E6393F89C20A0
:101A900093F99C30002BFFF639AF8DF8012035E724
:101AA000942302000080E00FA823020000F0490206
:101AB00000B4C404D8230200342302000080005084
:101AC0000090005000ED00E007B56B46054A106835
:101AD000516803C36846FFF72FFE002003B05DF88E
:101AE00004FB00BFD023020013B50024064A684659
:101AF000536F43F00103536700948DF80440FFF7E0
:101B000049FD204602B010BD0040005010B54028ED
:101B1000044608D801236109074A04F01F04A340C2
:101B200042F8213010BD4FF49871044800F0F6F9E6
:101B3000002CF7DBEEE700BF00E100E0E02302004D
:101B400010B53F28044604D940F23B11064800F086
:101B5000E5F9064B621153F8220004F01F04E0403F
:101B6000C04300F0010010BDE023020000E100E0EE
:101B7000002808DB01224309034900F01F008240CE
:101B8000603341F82320704700E100E038B500F1F0
:101B90001003502B04460D4604D94FF4EF710E4844
:101BA00000F0BCF90F2D04D940F2DF110A4800F013
:101BB000B5F960B20028ACBF00F16040074B4FEAB6
:101BC0000515EDB2ABBF00F5614000F00F0080F8E5
:101BD00000531D5438BD00BFE023020014ED00E0A7
:101BE00010B500F08BFA0A4B1A786AB901226FF02F
:101BF00004041A7000F07DFA204605210134FFF735
:101C0000C5FF402CF8D110BDBDE8104000F071BAFE
:101C10009411002008B5FFF751FE01280ED1114B99
:101C200004205A6E4FF480230F49520358BF0F4AC5
:101C30004B6601F51041086258BF536600F09AF9EF
:101C4000FFF7CEFFFFF740FF00F092F9FFF74CFFE0
:101C500000F091F900F09EF900F045F9BDE8084068
:101C600000F08AB9008000500090005000A00050A1
:101C700001220D4B5A610D4B0D4A196812689142B1
:101C80004FF0100234BF0B490B490A611A68013248
:101C90001A601A68632A05D900221A60074A136875
:101CA00001331360704700BF00A00450881100206A
:101CB0008411002000D0035000E003508011002068
:101CC00030B585B001213A20FEF732FF002304220F
:101CD00018461146FFF7AAFD224D01212420FEF7E8
:101CE00027FF10220021684600F072F96946284655
:101CF00000F060F81C4B1C681C4BB4FBF3F42B6B1E
:101D0000013C012C38BF0124DB0704D440F2BE4162
:101D1000174800F003F9EC610124164B07209C6181
:101D2000FFF726FF0720FFF7F1FE00210B46EC60CE
:101D30002246114D114C2068401A1328FBD9216806
:101D400042B10133632B01D90022642372B62B60A8
:101D500062B6F0E723B1013B0CBF01220022F5E798
:101D60000122F3E70080045098110020A0860100B2
:101D700041240200009004508411002080110020B2
:101D80000B4B984211D003F5804398420DD003F5D8
:101D90008043984209D003F58043984205D003F56B
:101DA0008043C31A5842584170470120704700BF12
:101DB0000080045038B505460C46FFF7E1FF18B91E
:101DC000B4211F4800F0AAF8284600F0FAF80122D2
:101DD00005F500531A63237961881B0243EA8143A6
:101DE000A17A0B43617843EA8113E17A43EAC11394
:101DF000217B43EA4113617B43EA0113A17B43EA60
:101E0000C103E17B43EAC123A17943EA0143E179BC
:101E100043EA41436B6005F580531A6322780AB99F
:101E20000223EB6000236B626379217A1B0143EA92
:101E30008103617A0B43AB600AB10123EB6038BDCB
:101E40005324020008B5064B044613B10021AFF33A
:101E50000080044B1B6803B19847204600F05FF8F0
:101E6000000000008C11002070B50D4D00260D4CB7
:101E7000641BA410A64209D10B4D00260B4C00F0A8
:101E80004FF9641BA410A64205D170BD55F8043B60
:101E900001369847EEE755F8043B01369847F2E7DC
:101EA000AC110020AC110020AC110020B0110020BA
:101EB000FFF706BF704708B5FFF7ACFEFFF7F8FF66
:101EC00000F074F8FFF7F6FFFAE7704770477047C5
:101ED0007047704708B5FEF7C3FA00F045F8BDE853
:101EE0000840FEF7B3BA7047FEF77ABB00F006B8B9
:101EF0007047704770477047704770470F207047B2
:101F0000FEE700239A4200D1704710B550F82340F5
:101F100041F8234001339A42F8D110BDFEE7FEE7B5
:101F200008B500F095F8BDE808400021FEF7DABDDD
:101F30000029CCBF01210021FEF7D4BD02214FF4BE
:101F40002070FFF7CDB97047704770B5054614464D
:101F50000E4600F0CAF82B685C4034405C402C60B0
:101F6000BDE8704000F0BCB800F000B80020704739
:101F7000FFF7B6BC7047704708B5FFF7ABFFFFF738
:101F8000B3FFFFF7B3FFFFF7B3FFBDE80840FFF76C
:101F9000B0BF704708B5FFF799FFFFF798FFFFF74D
:101FA00097FFFFF796FFFFF7F4FF08BD08B5FFF7AF
:101FB000A1FFFFF7A0FFFFF79FFFBDE80840FFF775
:101FC0009CBF036BDA0702D503695B06F9D470473F
:101FD00002440346934200D1704703F8011BF9E71E
:101FE000014B1868704700BF9C1100200A4B1B6F03
:101FF00003F00703013B032B03D8DFE803F00A03D8
:102000000608FEE7054B18687047054BFBE70548D7
:1020100070470548704700BF008000509C110020A9
:10202000A411002080D54302002D310108B5FFF72F
:10203000DDFF054B1B6FC3F303330133B0FBF3F03C
:10204000024B186008BD00BF0080005098110020AE
:102050000048704700B4C40400487047002D3101A7
:10206000014B1868704700BFA4110020004870475A
:1020700080D54302014B1868704700BFA0110020B3
:1020800070B50D46E8B1036813F4E07F03F03F0636
:10209000C3F3821210D0012A13D10B4C9B0603D537
:1020A00091210A48FFF73AFF45B104F58054012316
:1020B0000020B340236070BD054CEFE704F50054E9
:1020C000F5E70E20F7E700BF6880005062220200AB
:1020D000648000504FF4004070474FF47A707047AE
:1020E00010B962B6BFF36F8F7047EFF3108072B60E
:1020F000704780F31188BFF36F8F7047EFF3118043
:10210000302383F3118870470121FFF7B9BF000026
:1021100000000000000000000000000000000000BF
:10212000F8B500BFF8BC08BC9E467047F8B500BFC4
:10213000F8BC08BC9E4670472E2E2F73696D706CDC
:1021400069636974795F73646B5F323032352E3640
:102150002E332F706C6174666F726D2F656D6C69B4
:10216000622F7372632F656D5F636D752E63002E32
:102170002E2F73696D706C69636974795F73646B1A
:102180005F323032352E362E332F706C6174666FAD
:10219000726D2F656D6C69622F7372632F656D5F51
:1021A000656D752E6300433A5C55736572735C41CF
:1021B000646D696E5C53696D706C696369747953A1
:1021C000747564696F5C76355F776F726B7370617D
:1021D00063655C4D6F636B5F50726F6A6563745CBF
:1021E0004170706C69636174696F6E5C73696D7066
:1021F0006C69636974795F73646B5F323032352E5A
:10220000362E335C706C6174666F726D5C656D6CDC
:1022100069625C696E632F656D5F6770696F2E68B8
:10222000002E2E2F73696D706C69636974795F730A
:10223000646B5F323032352E362E332F706C617402
:10224000666F726D2F656D6C69622F7372632F6597
:102250006D5F6770696F2E630000FF011F00FF0054
:102260000C00433A5C55736572735C41646D696E32
:102270005C53696D706C69636974795374756469D2
:102280006F5C76355F776F726B73706163655C4D01
:102290006F636B5F50726F6A6563745C4170706CE2
:1022A00069636174696F6E5C73696D706C69636991
:1022B00074795F73646B5F323032352E362E335C47
:1022C000706C6174666F726D5C656D6C69625C697F
:1022D0006E632F656D5F6275732E68002E2E2F73EF
:1022E000696D706C69636974795F73646B5F3230B8
:1022F00032352E362E332F706C6174666F726D2FEF
:10230000736572766963652F636C6F636B5F6D6174
:102310006E616765722F7372632F736C5F636C6F8E
:10232000636B5F6D616E616765725F68616C5F733F
:10233000322E63002E2E2F73696D706C6963697481
:10234000795F73646B5F323032352E362E332F70E7
:102350006C6174666F726D2F736572766963652F39
:10236000636C6F636B5F6D616E616765722F737213
:10237000632F736C5F636C6F636B5F6D616E61671E
:1023800065725F696E69745F68616C5F73322E633A
:102390000000000001260000040000000000000012
:1023A00000010000000000000B0000000B00000016
:1023B00002000000000020200000000003000000D8
:1023C0008C8C3C00000000000000000000000000B9
:1023D0000103040101010903150000001A000000B7
:1023E0002E2E2F73696D706C69636974795F7364E5
:1023F0006B5F323032352E362E332F706C6174663F
:102400006F726D2F736572766963652F696E74657F
:1024100072727570745F6D616E616765722F737231
:10242000632F736C5F696E746572727570745F6D23
:10243000616E616765725F636F727465786D2E633C
:10244000002E2E2F7372632F656D5F74696D657238
:102450002E68002E2E2F7372632F656D5F74696D69
:0824600065722E63000000000C
:0824680068DFFF7F01000000A6
:0C2470007C2402009811002007000000EE
:10247C00C0EA2101C0EA21010080000000F04902FD
:0C248C00FFFFFFFFAD030200850302000C
:04000003200004894C
:00000001FF
